{
  "_format": "hh-sol-artifact-1",
  "contractName": "FundMe",
  "sourceName": "contracts/FundMe.sol",
  "abi": [
    {
      "inputs": [
        {
          "internalType": "address",
          "name": "priceFeedAddress",
          "type": "address"
        }
      ],
      "stateMutability": "nonpayable",
      "type": "constructor"
    },
    {
      "inputs": [],
      "name": "FundMe__NotOwner",
      "type": "error"
    },
    {
      "inputs": [],
      "name": "MINIMUM_USD",
      "outputs": [
        {
          "internalType": "uint256",
          "name": "",
          "type": "uint256"
        }
      ],
      "stateMutability": "view",
      "type": "function"
    },
    {
      "inputs": [
        {
          "internalType": "address",
          "name": "",
          "type": "address"
        }
      ],
      "name": "addressToAmountFunded",
      "outputs": [
        {
          "internalType": "uint256",
          "name": "",
          "type": "uint256"
        }
      ],
      "stateMutability": "view",
      "type": "function"
    },
    {
      "inputs": [],
      "name": "fund",
      "outputs": [],
      "stateMutability": "payable",
      "type": "function"
    },
    {
      "inputs": [
        {
          "internalType": "uint256",
          "name": "",
          "type": "uint256"
        }
      ],
      "name": "funders",
      "outputs": [
        {
          "internalType": "address",
          "name": "",
          "type": "address"
        }
      ],
      "stateMutability": "view",
      "type": "function"
    },
    {
      "inputs": [],
      "name": "getVersion",
      "outputs": [
        {
          "internalType": "uint256",
          "name": "",
          "type": "uint256"
        }
      ],
      "stateMutability": "view",
      "type": "function"
    },
    {
      "inputs": [],
      "name": "i_owner",
      "outputs": [
        {
          "internalType": "address",
          "name": "",
          "type": "address"
        }
      ],
      "stateMutability": "view",
      "type": "function"
    },
    {
      "inputs": [],
      "name": "priceFeed",
      "outputs": [
        {
          "internalType": "contract AggregatorV3Interface",
          "name": "",
          "type": "address"
        }
      ],
      "stateMutability": "view",
      "type": "function"
    },
    {
      "inputs": [],
      "name": "withdraw",
      "outputs": [],
      "stateMutability": "payable",
      "type": "function"
    }
  ],
  "bytecode": "0x60a06040523480156200001157600080fd5b50604051620010d3380380620010d3833981810160405281019062000037919062000120565b3373ffffffffffffffffffffffffffffffffffffffff1660808173ffffffffffffffffffffffffffffffffffffffff1660601b8152505080600260006101000a81548173ffffffffffffffffffffffffffffffffffffffff021916908373ffffffffffffffffffffffffffffffffffffffff1602179055505062000152565b600080fd5b600073ffffffffffffffffffffffffffffffffffffffff82169050919050565b6000620000e882620000bb565b9050919050565b620000fa81620000db565b81146200010657600080fd5b50565b6000815190506200011a81620000ef565b92915050565b600060208284031215620001395762000138620000b6565b5b6000620001498482850162000109565b91505092915050565b60805160601c610f5b620001786000396000818161025a015261061f0152610f5b6000f3fe60806040526004361061007b5760003560e01c8063741bef1a1161004e578063741bef1a1461011d578063b60d428814610148578063dba6335f14610152578063dc0d3dff1461017d5761007b565b80630d8e6e2c146100805780633ccfd60b146100ab5780633e47d6f3146100b55780636b69a592146100f2575b600080fd5b34801561008c57600080fd5b506100956101ba565b6040516100a2919061081c565b60405180910390f35b6100b3610258565b005b3480156100c157600080fd5b506100dc60048036038101906100d7919061089a565b610498565b6040516100e9919061081c565b60405180910390f35b3480156100fe57600080fd5b506101076104b0565b604051610114919061081c565b60405180910390f35b34801561012957600080fd5b506101326104bd565b60405161013f9190610926565b60405180910390f35b6101506104e3565b005b34801561015e57600080fd5b5061016761061d565b6040516101749190610950565b60405180910390f35b34801561018957600080fd5b506101a4600480360381019061019f9190610997565b610641565b6040516101b19190610950565b60405180910390f35b600080738a753747a1fa494ec906ce90e9f37563a8af630e90508073ffffffffffffffffffffffffffffffffffffffff166354fd4d506040518163ffffffff1660e01b815260040160206040518083038186803b15801561021a57600080fd5b505afa15801561022e573d6000803e3d6000fd5b505050506040513d601f19601f8201168201806040525081019061025291906109d9565b91505090565b7f000000000000000000000000000000000000000000000000000000000000000073ffffffffffffffffffffffffffffffffffffffff163373ffffffffffffffffffffffffffffffffffffffff16146102dd576040517f579610db00000000000000000000000000000000000000000000000000000000815260040160405180910390fd5b60005b6001805490508110156103885760006001828154811061030357610302610a06565b5b9060005260206000200160009054906101000a900473ffffffffffffffffffffffffffffffffffffffff16905060008060008373ffffffffffffffffffffffffffffffffffffffff1673ffffffffffffffffffffffffffffffffffffffff1681526020019081526020016000208190555050808061038090610a64565b9150506102e0565b50600067ffffffffffffffff8111156103a4576103a3610aad565b5b6040519080825280602002602001820160405280156103d25781602001602082028036833780820191505090505b50600190805190602001906103e892919061075c565b5060003373ffffffffffffffffffffffffffffffffffffffff164760405161040f90610b0d565b60006040518083038185875af1925050503d806000811461044c576040519150601f19603f3d011682016040523d82523d6000602084013e610451565b606091505b5050905080610495576040517f08c379a000000000000000000000000000000000000000000000000000000000815260040161048c90610b7f565b60405180910390fd5b50565b60006020528060005260406000206000915090505481565b6802b5e3af16b188000081565b600260009054906101000a900473ffffffffffffffffffffffffffffffffffffffff1681565b6802b5e3af16b1880000610522600260009054906101000a900473ffffffffffffffffffffffffffffffffffffffff163461068090919063ffffffff16565b1015610563576040517f08c379a000000000000000000000000000000000000000000000000000000000815260040161055a90610beb565b60405180910390fd5b346000803373ffffffffffffffffffffffffffffffffffffffff1673ffffffffffffffffffffffffffffffffffffffff16815260200190815260200160002060008282546105b19190610c0b565b925050819055506001339080600181540180825580915050600190039060005260206000200160009091909190916101000a81548173ffffffffffffffffffffffffffffffffffffffff021916908373ffffffffffffffffffffffffffffffffffffffff160217905550565b7f000000000000000000000000000000000000000000000000000000000000000081565b6001818154811061065157600080fd5b906000526020600020016000915054906101000a900473ffffffffffffffffffffffffffffffffffffffff1681565b60008061068c836106bc565b90506000670de0b6b3a764000085836106a59190610c61565b6106af9190610cea565b9050809250505092915050565b6000808273ffffffffffffffffffffffffffffffffffffffff1663feaf968c6040518163ffffffff1660e01b815260040160a06040518083038186803b15801561070557600080fd5b505afa158015610719573d6000803e3d6000fd5b505050506040513d601f19601f8201168201806040525081019061073d9190610d93565b5050509150506402540be400816107549190610e0e565b915050919050565b8280548282559060005260206000209081019282156107d5579160200282015b828111156107d45782518260006101000a81548173ffffffffffffffffffffffffffffffffffffffff021916908373ffffffffffffffffffffffffffffffffffffffff1602179055509160200191906001019061077c565b5b5090506107e291906107e6565b5090565b5b808211156107ff5760008160009055506001016107e7565b5090565b6000819050919050565b61081681610803565b82525050565b6000602082019050610831600083018461080d565b92915050565b600080fd5b600073ffffffffffffffffffffffffffffffffffffffff82169050919050565b60006108678261083c565b9050919050565b6108778161085c565b811461088257600080fd5b50565b6000813590506108948161086e565b92915050565b6000602082840312156108b0576108af610837565b5b60006108be84828501610885565b91505092915050565b6000819050919050565b60006108ec6108e76108e28461083c565b6108c7565b61083c565b9050919050565b60006108fe826108d1565b9050919050565b6000610910826108f3565b9050919050565b61092081610905565b82525050565b600060208201905061093b6000830184610917565b92915050565b61094a8161085c565b82525050565b60006020820190506109656000830184610941565b92915050565b61097481610803565b811461097f57600080fd5b50565b6000813590506109918161096b565b92915050565b6000602082840312156109ad576109ac610837565b5b60006109bb84828501610982565b91505092915050565b6000815190506109d38161096b565b92915050565b6000602082840312156109ef576109ee610837565b5b60006109fd848285016109c4565b91505092915050565b7f4e487b7100000000000000000000000000000000000000000000000000000000600052603260045260246000fd5b7f4e487b7100000000000000000000000000000000000000000000000000000000600052601160045260246000fd5b6000610a6f82610803565b91507fffffffffffffffffffffffffffffffffffffffffffffffffffffffffffffffff821415610aa257610aa1610a35565b5b600182019050919050565b7f4e487b7100000000000000000000000000000000000000000000000000000000600052604160045260246000fd5b600081905092915050565b50565b6000610af7600083610adc565b9150610b0282610ae7565b600082019050919050565b6000610b1882610aea565b9150819050919050565b600082825260208201905092915050565b7f43616c6c206661696c6564000000000000000000000000000000000000000000600082015250565b6000610b69600b83610b22565b9150610b7482610b33565b602082019050919050565b60006020820190508181036000830152610b9881610b5c565b9050919050565b7f596f75206e65656420746f207370656e64206d6f726520455448210000000000600082015250565b6000610bd5601b83610b22565b9150610be082610b9f565b602082019050919050565b60006020820190508181036000830152610c0481610bc8565b9050919050565b6000610c1682610803565b9150610c2183610803565b9250827fffffffffffffffffffffffffffffffffffffffffffffffffffffffffffffffff03821115610c5657610c55610a35565b5b828201905092915050565b6000610c6c82610803565b9150610c7783610803565b9250817fffffffffffffffffffffffffffffffffffffffffffffffffffffffffffffffff0483118215151615610cb057610caf610a35565b5b828202905092915050565b7f4e487b7100000000000000000000000000000000000000000000000000000000600052601260045260246000fd5b6000610cf582610803565b9150610d0083610803565b925082610d1057610d0f610cbb565b5b828204905092915050565b600069ffffffffffffffffffff82169050919050565b610d3a81610d1b565b8114610d4557600080fd5b50565b600081519050610d5781610d31565b92915050565b6000819050919050565b610d7081610d5d565b8114610d7b57600080fd5b50565b600081519050610d8d81610d67565b92915050565b600080600080600060a08688031215610daf57610dae610837565b5b6000610dbd88828901610d48565b9550506020610dce88828901610d7e565b9450506040610ddf888289016109c4565b9350506060610df0888289016109c4565b9250506080610e0188828901610d48565b9150509295509295909350565b6000610e1982610d5d565b9150610e2483610d5d565b9250827f7fffffffffffffffffffffffffffffffffffffffffffffffffffffffffffffff0482116000841360008413161615610e6357610e62610a35565b5b817f80000000000000000000000000000000000000000000000000000000000000000583126000841260008413161615610ea057610e9f610a35565b5b827f80000000000000000000000000000000000000000000000000000000000000000582126000841360008412161615610edd57610edc610a35565b5b827f7fffffffffffffffffffffffffffffffffffffffffffffffffffffffffffffff0582126000841260008412161615610f1a57610f19610a35565b5b82820290509291505056fea2646970667358221220646ab22db891aca8c0588469f71c8ca7760cd451274e0d957fec26f5e808a7b564736f6c63430008080033",
  "linkReferences": {},
  "deployedLinkReferences": {}
}