{
  "_format": "hh-sol-artifact-1",
  "contractName": "FundMe",
  "sourceName": "contracts/FundMe.sol",
  "abi": [
    {
      "inputs": [
        {
          "internalType": "address",
          "name": "priceFeedAddress",
          "type": "address"
        }
      ],
      "stateMutability": "nonpayable",
      "type": "constructor"
    },
    {
      "inputs": [],
      "name": "FundMe__NotOwner",
      "type": "error"
    },
    {
      "inputs": [],
      "name": "MINIMUM_USD",
      "outputs": [
        {
          "internalType": "uint256",
          "name": "",
          "type": "uint256"
        }
      ],
      "stateMutability": "view",
      "type": "function"
    },
    {
      "inputs": [],
      "name": "cheaperWithdraw",
      "outputs": [],
      "stateMutability": "payable",
      "type": "function"
    },
    {
      "inputs": [],
      "name": "fund",
      "outputs": [],
      "stateMutability": "payable",
      "type": "function"
    },
    {
      "inputs": [],
      "name": "getVersion",
      "outputs": [
        {
          "internalType": "uint256",
          "name": "",
          "type": "uint256"
        }
      ],
      "stateMutability": "view",
      "type": "function"
    },
    {
      "inputs": [],
      "name": "i_owner",
      "outputs": [
        {
          "internalType": "address",
          "name": "",
          "type": "address"
        }
      ],
      "stateMutability": "view",
      "type": "function"
    },
    {
      "inputs": [
        {
          "internalType": "address",
          "name": "",
          "type": "address"
        }
      ],
      "name": "s_addressToAmountFunded",
      "outputs": [
        {
          "internalType": "uint256",
          "name": "",
          "type": "uint256"
        }
      ],
      "stateMutability": "view",
      "type": "function"
    },
    {
      "inputs": [
        {
          "internalType": "uint256",
          "name": "",
          "type": "uint256"
        }
      ],
      "name": "s_funders",
      "outputs": [
        {
          "internalType": "address",
          "name": "",
          "type": "address"
        }
      ],
      "stateMutability": "view",
      "type": "function"
    },
    {
      "inputs": [],
      "name": "s_priceFeed",
      "outputs": [
        {
          "internalType": "contract AggregatorV3Interface",
          "name": "",
          "type": "address"
        }
      ],
      "stateMutability": "view",
      "type": "function"
    },
    {
      "inputs": [],
      "name": "withdraw",
      "outputs": [],
      "stateMutability": "payable",
      "type": "function"
    }
  ],
  "bytecode": "0x60a06040523480156200001157600080fd5b50604051620012bb380380620012bb833981810160405281019062000037919062000120565b3373ffffffffffffffffffffffffffffffffffffffff1660808173ffffffffffffffffffffffffffffffffffffffff1660601b8152505080600260006101000a81548173ffffffffffffffffffffffffffffffffffffffff021916908373ffffffffffffffffffffffffffffffffffffffff1602179055505062000152565b600080fd5b600073ffffffffffffffffffffffffffffffffffffffff82169050919050565b6000620000e882620000bb565b9050919050565b620000fa81620000db565b81146200010657600080fd5b50565b6000815190506200011a81620000ef565b92915050565b600060208284031215620001395762000138620000b6565b5b6000620001498482850162000109565b91505092915050565b60805160601c61113c6200017f600039600081816102ad0152818161063d01526108ab015261113c6000f3fe6080604052600436106100865760003560e01c806354861af71161005957806354861af7146101285780636b69a59214610165578063b60d428814610190578063be2693f01461019a578063dba6335f146101a457610086565b80630d8e6e2c1461008b5780630ec3b027146100b65780631bf6132d146100e15780633ccfd60b1461011e575b600080fd5b34801561009757600080fd5b506100a06101cf565b6040516100ad9190610a69565b60405180910390f35b3480156100c257600080fd5b506100cb61026d565b6040516100d89190610b03565b60405180910390f35b3480156100ed57600080fd5b5061010860048036038101906101039190610b61565b610293565b6040516101159190610a69565b60405180910390f35b6101266102ab565b005b34801561013457600080fd5b5061014f600480360381019061014a9190610bba565b6104b5565b60405161015c9190610bf6565b60405180910390f35b34801561017157600080fd5b5061017a6104f4565b6040516101879190610a69565b60405180910390f35b610198610501565b005b6101a261063b565b005b3480156101b057600080fd5b506101b96108a9565b6040516101c69190610bf6565b60405180910390f35b600080738a753747a1fa494ec906ce90e9f37563a8af630e90508073ffffffffffffffffffffffffffffffffffffffff166354fd4d506040518163ffffffff1660e01b815260040160206040518083038186803b15801561022f57600080fd5b505afa158015610243573d6000803e3d6000fd5b505050506040513d601f19601f820116820180604052508101906102679190610c26565b91505090565b600260009054906101000a900473ffffffffffffffffffffffffffffffffffffffff1681565b60006020528060005260406000206000915090505481565b7f000000000000000000000000000000000000000000000000000000000000000073ffffffffffffffffffffffffffffffffffffffff163373ffffffffffffffffffffffffffffffffffffffff1614610330576040517f579610db00000000000000000000000000000000000000000000000000000000815260040160405180910390fd5b60005b6001805490508110156103db5760006001828154811061035657610355610c53565b5b9060005260206000200160009054906101000a900473ffffffffffffffffffffffffffffffffffffffff16905060008060008373ffffffffffffffffffffffffffffffffffffffff1673ffffffffffffffffffffffffffffffffffffffff168152602001908152602001600020819055505080806103d390610cb1565b915050610333565b50600067ffffffffffffffff8111156103f7576103f6610cfa565b5b6040519080825280602002602001820160405280156104255781602001602082028036833780820191505090505b506001908051906020019061043b9291906109a9565b5060003373ffffffffffffffffffffffffffffffffffffffff164760405161046290610d5a565b60006040518083038185875af1925050503d806000811461049f576040519150601f19603f3d011682016040523d82523d6000602084013e6104a4565b606091505b50509050806104b257600080fd5b50565b600181815481106104c557600080fd5b906000526020600020016000915054906101000a900473ffffffffffffffffffffffffffffffffffffffff1681565b6802b5e3af16b188000081565b6802b5e3af16b1880000610540600260009054906101000a900473ffffffffffffffffffffffffffffffffffffffff16346108cd90919063ffffffff16565b1015610581576040517f08c379a000000000000000000000000000000000000000000000000000000000815260040161057890610dcc565b60405180910390fd5b346000803373ffffffffffffffffffffffffffffffffffffffff1673ffffffffffffffffffffffffffffffffffffffff16815260200190815260200160002060008282546105cf9190610dec565b925050819055506001339080600181540180825580915050600190039060005260206000200160009091909190916101000a81548173ffffffffffffffffffffffffffffffffffffffff021916908373ffffffffffffffffffffffffffffffffffffffff160217905550565b7f000000000000000000000000000000000000000000000000000000000000000073ffffffffffffffffffffffffffffffffffffffff163373ffffffffffffffffffffffffffffffffffffffff16146106c0576040517f579610db00000000000000000000000000000000000000000000000000000000815260040160405180910390fd5b6000600180548060200260200160405190810160405280929190818152602001828054801561074457602002820191906000526020600020905b8160009054906101000a900473ffffffffffffffffffffffffffffffffffffffff1673ffffffffffffffffffffffffffffffffffffffff16815260200190600101908083116106fa575b5050505050905060005b81518110156107ce57600082828151811061076c5761076b610c53565b5b6020026020010151905060008060008373ffffffffffffffffffffffffffffffffffffffff1673ffffffffffffffffffffffffffffffffffffffff168152602001908152602001600020819055505080806107c690610cb1565b91505061074e565b50600067ffffffffffffffff8111156107ea576107e9610cfa565b5b6040519080825280602002602001820160405280156108185781602001602082028036833780820191505090505b506001908051906020019061082e9291906109a9565b5060003373ffffffffffffffffffffffffffffffffffffffff164760405161085590610d5a565b60006040518083038185875af1925050503d8060008114610892576040519150601f19603f3d011682016040523d82523d6000602084013e610897565b606091505b50509050806108a557600080fd5b5050565b7f000000000000000000000000000000000000000000000000000000000000000081565b6000806108d983610909565b90506000670de0b6b3a764000085836108f29190610e42565b6108fc9190610ecb565b9050809250505092915050565b6000808273ffffffffffffffffffffffffffffffffffffffff1663feaf968c6040518163ffffffff1660e01b815260040160a06040518083038186803b15801561095257600080fd5b505afa158015610966573d6000803e3d6000fd5b505050506040513d601f19601f8201168201806040525081019061098a9190610f74565b5050509150506402540be400816109a19190610fef565b915050919050565b828054828255906000526020600020908101928215610a22579160200282015b82811115610a215782518260006101000a81548173ffffffffffffffffffffffffffffffffffffffff021916908373ffffffffffffffffffffffffffffffffffffffff160217905550916020019190600101906109c9565b5b509050610a2f9190610a33565b5090565b5b80821115610a4c576000816000905550600101610a34565b5090565b6000819050919050565b610a6381610a50565b82525050565b6000602082019050610a7e6000830184610a5a565b92915050565b600073ffffffffffffffffffffffffffffffffffffffff82169050919050565b6000819050919050565b6000610ac9610ac4610abf84610a84565b610aa4565b610a84565b9050919050565b6000610adb82610aae565b9050919050565b6000610aed82610ad0565b9050919050565b610afd81610ae2565b82525050565b6000602082019050610b186000830184610af4565b92915050565b600080fd5b6000610b2e82610a84565b9050919050565b610b3e81610b23565b8114610b4957600080fd5b50565b600081359050610b5b81610b35565b92915050565b600060208284031215610b7757610b76610b1e565b5b6000610b8584828501610b4c565b91505092915050565b610b9781610a50565b8114610ba257600080fd5b50565b600081359050610bb481610b8e565b92915050565b600060208284031215610bd057610bcf610b1e565b5b6000610bde84828501610ba5565b91505092915050565b610bf081610b23565b82525050565b6000602082019050610c0b6000830184610be7565b92915050565b600081519050610c2081610b8e565b92915050565b600060208284031215610c3c57610c3b610b1e565b5b6000610c4a84828501610c11565b91505092915050565b7f4e487b7100000000000000000000000000000000000000000000000000000000600052603260045260246000fd5b7f4e487b7100000000000000000000000000000000000000000000000000000000600052601160045260246000fd5b6000610cbc82610a50565b91507fffffffffffffffffffffffffffffffffffffffffffffffffffffffffffffffff821415610cef57610cee610c82565b5b600182019050919050565b7f4e487b7100000000000000000000000000000000000000000000000000000000600052604160045260246000fd5b600081905092915050565b50565b6000610d44600083610d29565b9150610d4f82610d34565b600082019050919050565b6000610d6582610d37565b9150819050919050565b600082825260208201905092915050565b7f596f75206e65656420746f207370656e64206d6f726520455448210000000000600082015250565b6000610db6601b83610d6f565b9150610dc182610d80565b602082019050919050565b60006020820190508181036000830152610de581610da9565b9050919050565b6000610df782610a50565b9150610e0283610a50565b9250827fffffffffffffffffffffffffffffffffffffffffffffffffffffffffffffffff03821115610e3757610e36610c82565b5b828201905092915050565b6000610e4d82610a50565b9150610e5883610a50565b9250817fffffffffffffffffffffffffffffffffffffffffffffffffffffffffffffffff0483118215151615610e9157610e90610c82565b5b828202905092915050565b7f4e487b7100000000000000000000000000000000000000000000000000000000600052601260045260246000fd5b6000610ed682610a50565b9150610ee183610a50565b925082610ef157610ef0610e9c565b5b828204905092915050565b600069ffffffffffffffffffff82169050919050565b610f1b81610efc565b8114610f2657600080fd5b50565b600081519050610f3881610f12565b92915050565b6000819050919050565b610f5181610f3e565b8114610f5c57600080fd5b50565b600081519050610f6e81610f48565b92915050565b600080600080600060a08688031215610f9057610f8f610b1e565b5b6000610f9e88828901610f29565b9550506020610faf88828901610f5f565b9450506040610fc088828901610c11565b9350506060610fd188828901610c11565b9250506080610fe288828901610f29565b9150509295509295909350565b6000610ffa82610f3e565b915061100583610f3e565b9250827f7fffffffffffffffffffffffffffffffffffffffffffffffffffffffffffffff048211600084136000841316161561104457611043610c82565b5b817f8000000000000000000000000000000000000000000000000000000000000000058312600084126000841316161561108157611080610c82565b5b827f800000000000000000000000000000000000000000000000000000000000000005821260008413600084121616156110be576110bd610c82565b5b827f7fffffffffffffffffffffffffffffffffffffffffffffffffffffffffffffff05821260008412600084121616156110fb576110fa610c82565b5b82820290509291505056fea2646970667358221220540a04aade9172c103354ccecf6ce40bfb0cfba6f6ff0283bbefb7aefc4625c664736f6c63430008080033",
  "linkReferences": {},
  "deployedLinkReferences": {}
}